{
  "contractName": "FileHash",
  "abi": [
    {
      "constant": true,
      "inputs": [
        {
          "internalType": "uint256",
          "name": "",
          "type": "uint256"
        }
      ],
      "name": "notesdata",
      "outputs": [
        {
          "internalType": "address",
          "name": "borrower",
          "type": "address"
        },
        {
          "internalType": "string",
          "name": "hash",
          "type": "string"
        }
      ],
      "payable": false,
      "stateMutability": "view",
      "type": "function"
    },
    {
      "constant": false,
      "inputs": [
        {
          "internalType": "string",
          "name": "_hash",
          "type": "string"
        }
      ],
      "name": "addhash",
      "outputs": [
        {
          "internalType": "uint256",
          "name": "_noteId",
          "type": "uint256"
        }
      ],
      "payable": false,
      "stateMutability": "nonpayable",
      "type": "function"
    },
    {
      "constant": true,
      "inputs": [
        {
          "internalType": "uint256",
          "name": "_noteId",
          "type": "uint256"
        }
      ],
      "name": "showhash",
      "outputs": [
        {
          "internalType": "address",
          "name": "_borrower",
          "type": "address"
        },
        {
          "internalType": "string",
          "name": "_hash",
          "type": "string"
        }
      ],
      "payable": false,
      "stateMutability": "view",
      "type": "function"
    }
  ],
  "bytecode": "0x60806040526000805534801561001457600080fd5b50610638806100246000396000f3fe608060405234801561001057600080fd5b50600436106100415760003560e01c806336b0f89d146100465780633dc8fd5a14610115578063696cb801146101ef575b600080fd5b6100ff6004803603602081101561005c57600080fd5b810190808035906020019064010000000081111561007957600080fd5b82018360208201111561008b57600080fd5b803590602001918460018302840111640100000000831117156100ad57600080fd5b91908080601f016020809104026020016040519081016040528093929190818152602001838380828437600081840152601f19601f8201169050808301925050505050505091929192905050506102c9565b6040518082815260200191505060405180910390f35b6101416004803603602081101561012b57600080fd5b810190808035906020019092919050505061038c565b604051808373ffffffffffffffffffffffffffffffffffffffff1673ffffffffffffffffffffffffffffffffffffffff16815260200180602001828103825283818151815260200191508051906020019080838360005b838110156101b3578082015181840152602081019050610198565b50505050905090810190601f1680156101e05780820380516001836020036101000a031916815260200191505b50935050505060405180910390f35b61021b6004803603602081101561020557600080fd5b8101908080359060200190929190505050610468565b604051808373ffffffffffffffffffffffffffffffffffffffff1673ffffffffffffffffffffffffffffffffffffffff16815260200180602001828103825283818151815260200191508051906020019080838360005b8381101561028d578082015181840152602081019050610272565b50505050905090810190601f1680156102ba5780820380516001836020036101000a031916815260200191505b50935050505060405180910390f35b6000806000815480929190600101919050555060405180604001604052803373ffffffffffffffffffffffffffffffffffffffff16815260200183815250600160008054815260200190815260200160002060008201518160000160006101000a81548173ffffffffffffffffffffffffffffffffffffffff021916908373ffffffffffffffffffffffffffffffffffffffff160217905550602082015181600101908051906020019061037e92919061055e565b509050506000549050919050565b60016020528060005260406000206000915090508060000160009054906101000a900473ffffffffffffffffffffffffffffffffffffffff1690806001018054600181600116156101000203166002900480601f01602080910402602001604051908101604052809291908181526020018280546001816001161561010002031660029004801561045e5780601f106104335761010080835404028352916020019161045e565b820191906000526020600020905b81548152906001019060200180831161044157829003601f168201915b5050505050905082565b600060606001600084815260200190815260200160002060000160009054906101000a900473ffffffffffffffffffffffffffffffffffffffff1660016000858152602001908152602001600020600101808054600181600116156101000203166002900480601f01602080910402602001604051908101604052809291908181526020018280546001816001161561010002031660029004801561054e5780601f106105235761010080835404028352916020019161054e565b820191906000526020600020905b81548152906001019060200180831161053157829003601f168201915b5050505050905091509150915091565b828054600181600116156101000203166002900490600052602060002090601f016020900481019282601f1061059f57805160ff19168380011785556105cd565b828001600101855582156105cd579182015b828111156105cc5782518255916020019190600101906105b1565b5b5090506105da91906105de565b5090565b61060091905b808211156105fc5760008160009055506001016105e4565b5090565b9056fea265627a7a723158209c92967e204323973278844ad75f88fec1bf5e66c31d3d21f22db0c24163b3ec64736f6c634300050c0032",
  "source": "//specifying solidity version to the compiler\npragma solidity ^0.5.0;\n\n\n// declaring the contract\ncontract FileHash {\n    \n    //unique ID for each note that is stored on the blockchain\n    uint256 noteId = 0;\n    \n    //structure of data containing the borrower address and the note's IPFS hash\n    struct data{\n        address borrower;\n        string hash;\n    }\n    \n    //mapping the note's data to the unique ID\n    mapping(uint256 => data) public notesdata;\n    \n    //function to add a IPFS hash of the Note to the blockchain\n    function addhash(string memory _hash) public returns( uint256 _noteId){\n    \n    noteId++;                                       \n    notesdata[noteId] = data(msg.sender, _hash);        // adding the borrower address and the note's IPFS hash to the struct and mapping\n\n    \n    return noteId;                                  // retruning the noteId to the client \n    }\n    \n    \n    // function to view who is the borrower and respective note's IPFS address of a noteId\n    function showhash(uint256 _noteId) public view returns(address _borrower, string memory _hash ) {\n        \n        return (notesdata[_noteId].borrower, notesdata[_noteId].hash);\n    }\n}\n",
  "sourcePath": "C:/Users/Bobby/Desktop/Day2/Truffle-React-IPFS-BoilerPlate-master/contracts/NoteHash.sol",
  "compiler": {
    "name": "solc",
    "version": "0.5.12+commit.7709ece9.Emscripten.clang"
  },
  "schemaVersion": "3.0.18",
  "updatedAt": "2019-12-06T16:12:13.310Z",
  "devdoc": {
    "methods": {}
  },
  "userdoc": {
    "methods": {}
  }
}